:020000040800F2
:100000000010002025020008750200087502000893
:1000100000000000000000000000000000000000E0
:100020000000000000000000000000007502000851
:1000300000000000000000007502000875020008C2
:1000400075020008750200087502000875020008B4
:1000500075020008750200087502000875020008A4
:100060000000000075020008750200087502000813
:100070007502000875020008750200080000000003
:1000800075020008750200080000000075020008F3
:100090007502000875020008750200087502000864
:1000A0007502000875020008750200087502000854
:1000B00075020008750200080000000075020008C3
:1000C00010B5064C2378002B07D1054B002B02D02E
:1000D000044800E000BF0123237010BD0000002091
:1000E00000000000C0020008044B10B5002B03D034
:1000F0000349044800E000BF10BDC04600000000F6
:1001000004000020C002000880B500AF194B9A69B6
:10011000184B802109010A439A61174B174A9A62CA
:10012000154BFA229200DA62134B9A69124B14496A
:100130000A409A61104B9A690F4B68210A439A61F1
:100140000D4B1A6A0C4B01210A431A620A4BFA2220
:1001500052005A63084B5A6C074B802109020A432C
:100160005A64054B1A68044B01210A431A60C046C1
:10017000BD4680BD00100240002C01403F1F000022
:100180008F8FFFFF80B500AF0F4B1A680E4B802199
:1001900049020A431A60C0460B4B1A6880239B022F
:1001A0001340F9D0084B5A68074B01210A435A60A3
:1001B000C046054B5B680C221340042BF9D1C046A6
:1001C000C046BD4680BDC0460010024080B500AFAD
:1001D0000D4B5A690C4B8021C9020A435A610B4BE3
:1001E0001A680A4B03218A431A60084B1A68074BA6
:1001F00002210A431A60054B1A6A044B02210A4382
:100200001A62C046BD4680BD00100240000400488E
:1002100080B500AFFFF7B6FFFFF7D8FFFFF774FF19
:10022000C046FDE70D48854600E000BF0C480D497B
:100230000D4A002302E0D458C4500433C4188C4241
:10024000F9D30A4A0A4C002301E013600432A242A7
:10025000FBD300F011F8FFF7DBFFFEE700100020F2
:100260000000002000000020E00200080000002044
:100270001C000020FEE7000070B500260C4C0D4D60
:10028000641BA410A64209D1002600F019F80A4CFC
:100290000A4D641BA410A64205D170BDB300EB58F3
:1002A00098470136EEE7B300EB5898470136F2E77E
:1002B000D8020008D8020008DC020008D8020008B2
:1002C000F8B5C046F8BC08BC9E467047F8B5C046B5
:0802D000F8BC08BC9E46704713
:0402D800E900000831
:0402DC00C100000855
:0400000508000225C8
:00000001FF
