:020000040800F2
:1000000000100020C10B0008110C0008110C0008A2
:1000100000000000000000000000000000000000E0
:10002000000000000000000000000000110C0008AB
:100030000000000000000000110C0008110C000876
:10004000110C0008110C0008110C0008110C00081C
:10005000110C0008110C0008110C0008110C00080C
:1000600000000000110C0008110C0008110C000821
:10007000110C0008110C0008110C00080000000011
:100080009D0A0008110C000800000000110C000877
:10009000110C0008110C0008110C0008110C0008CC
:1000A000110C0008110C0008110C0008690A000866
:1000B000110C0008110C000800000000110C0008D1
:1000C00010B5064C2378002B07D1054B002B02D02E
:1000D000044800E000BF0123237010BD0000002091
:1000E000000000005C0C0008044B10B5002B03D08E
:1000F0000349044800E000BF10BDC04600000000F6
:10010000040000205C0C0008002243088B4274D3DA
:1001100003098B425FD3030A8B4244D3030B8B4208
:1001200028D3030C8B420DD3FF22090212BA030C11
:100130008B4202D31212090265D0030B8B4219D3F2
:1001400000E0090AC30B8B4201D3CB03C01A524112
:10015000830B8B4201D38B03C01A5241430B8B425A
:1001600001D34B03C01A5241030B8B4201D30B0343
:10017000C01A5241C30A8B4201D3CB02C01A52416A
:10018000830A8B4201D38B02C01A5241430A8B422D
:1001900001D34B02C01A5241030A8B4201D30B0216
:1001A000C01A5241CDD2C3098B4201D3CB01C01A30
:1001B000524183098B4201D38B01C01A524143093A
:1001C0008B4201D34B01C01A524103098B4201D328
:1001D0000B01C01A5241C3088B4201D3CB00C01A95
:1001E000524183088B4201D38B00C01A524143080D
:1001F0008B4201D34B00C01A5241411A00D2014632
:10020000524110467047FFE701B5002000F0F0F8BA
:1002100002BDC0460029F7D076E7704703460B437E
:100220007FD4002243088B4274D303098B425FD3EF
:10023000030A8B4244D3030B8B4228D3030C8B421B
:100240000DD3FF22090212BA030C8B4202D3121201
:10025000090265D0030B8B4219D300E0090AC30BD6
:100260008B4201D3CB03C01A5241830B8B4201D383
:100270008B03C01A5241430B8B4201D34B03C01A6C
:100280005241030B8B4201D30B03C01A5241C30AE4
:100290008B4201D3CB02C01A5241830A8B4201D355
:1002A0008B02C01A5241430A8B4201D34B02C01A3F
:1002B0005241030A8B4201D30B02C01A5241CDD2E4
:1002C000C3098B4201D3CB01C01A524183098B422F
:1002D00001D38B01C01A524143098B4201D34B0118
:1002E000C01A524103098B4201D30B01C01A52417B
:1002F000C3088B4201D3CB00C01A524183088B4202
:1003000001D38B00C01A524143088B4201D34B00EA
:10031000C01A5241411A00D201465241104670475C
:100320005DE0CA0F00D04942031000D34042534061
:1003300000229C4603098B422DD3030A8B4212D321
:10034000FC22890112BA030A8B420CD38901921153
:100350008B4208D3890192118B4204D389013AD090
:10036000921100E08909C3098B4201D3CB01C01A65
:10037000524183098B4201D38B01C01A5241430978
:100380008B4201D34B01C01A524103098B4201D366
:100390000B01C01A5241C3088B4201D3CB00C01AD3
:1003A000524183088B4201D38B00C01A5241D9D2EB
:1003B00043088B4201D34B00C01A5241411A00D26C
:1003C0000146634652415B10104601D34042002B68
:1003D00000D54942704763465B1000D3404201B5E7
:1003E000002000F005F802BD0029F8D016E770479C
:1003F0007047C04680B582B000AF0200FB1D1A7086
:10040000FB1D1B787F2B09D8FB1D1B781A001F23AF
:100410001A40044B012191400A001A60C046BD46B3
:1004200002B080BD00E100E090B583B000AF0200F3
:100430003960FB1D1A70FB1D1B787F2B28D82F4AB3
:10044000FB1D1B785BB29B08C0339B009B58FA1DB9
:100450001278110003220A40D200FF2191400A00C5
:10046000D2431A4011003B689B01FF221A40FB1D3A
:100470001B78180003230340DB009A401F48FB1D34
:100480001B785BB29B080A43C0339B001A5031E0D3
:100490001B4AFB1D1B7819000F230B40083B9B08D0
:1004A00006339B00D31804331B68FA1D1278110021
:1004B00003220A40D200FF2191400A00D2431A4091
:1004C00011003B689B01FF221A40FB1D1B7818009E
:1004D00003230340DB009A400948FB1D1B781C00E6
:1004E0000F232340083B9B080A4306339B00C31895
:1004F00004331A60C046BD4603B090BD00E100E081
:1005000000ED00E090B583B000AF7860214B5A69F0
:10051000204B802189020A435A611E4B9A691D4B68
:100520008021C9010A439A619023DB051A68902350
:10053000DB05F0218A431A609023DB051A689023BB
:10054000DB05A0210A431A609023DB051A6A902379
:10055000DB0511490A401A629023DB051A6A9023D1
:10056000DB05882149010A431A620C4C79680C4862
:10057000FFF7CAFD0300E3601B20FFF73BFF0021EC
:100580001B20FFF751FF054B2D221A60C046BD46C8
:1005900003B090BD00100240FF00FFFF0038014093
:1005A00000127A0080B582B000AF0200FB1D1A7005
:1005B000C046074BDB6980221340FAD0044AFB1D7A
:1005C0001B789BB21385C046BD4602B080BDC046B5
:1005D0000038014080B584B000AF78600023FB6034
:1005E00009E0FB687A68D3181B781800FFF7DAFF78
:1005F000FB680133FB60FB687A68D3181B78002B1B
:10060000EFD1C046C046BD4604B080BD80B582B0C3
:1006100000AF78607B681800FFF7DCFF0D20FFF764
:10062000C1FF0A20FFF7BEFFC046BD4602B080BD35
:1006300080B500AF354B5A69344B802189020A439B
:100640005A61324B9A69314B802149010A439A61C0
:100650009023DB051A689023DB052D490A401A60B8
:100660009023DB051A689023DB05882109020A43E1
:100670001A609023DB051A6A9023DB0525490A409E
:100680001A62254B00221A60234B1A68224B042160
:100690000A431A60204B1A681F4B802189000A43C5
:1006A0001A601D4B1A681C4B802149000A431A60CE
:1006B000194B1A68184B38210A431A60164B1A68EE
:1006C000154B03218A431A60134B1A68124B4021C1
:1006D0008A431A60104B5A680F4B10490A405A60FF
:1006E0000D4B5A680C4BE021C9000A435A600A4B73
:1006F0005A68094B0A490A405A60074B1A68064B68
:1007000040210A431A60C046BD4680BD0010024029
:10071000FF33FFFFFFFF0F0F00300140FFF0FFFF2F
:10072000FFEFFFFF80B582B000AF0200FB1D1A7023
:10073000C0460D4B9B6802221340FAD00B4AFB1DAA
:100740001B781370C046084B9B6802221340FAD0F6
:10075000C046054B9B6880221340FAD1C046C04674
:10076000BD4602B080BDC046003001400C300140A3
:1007700080B582B000AF0200FB1D1A70FB1D1B7814
:100780007F2B09D8FB1D1B781A001F231A40044B2E
:10079000012191400A001A60C046BD4602B080BDEA
:1007A00000E100E090B583B000AF02003960FB1DAE
:1007B0001A70FB1D1B787F2B28D82F4AFB1D1B7836
:1007C0005BB29B08C0339B009B58FA1D1278110046
:1007D00003220A40D200FF2191400A00D2431A406E
:1007E00011003B689B01FF221A40FB1D1B7818007B
:1007F00003230340DB009A401F48FB1D1B785BB2BC
:100800009B080A43C0339B001A5031E01B4AFB1D72
:100810001B7819000F230B40083B9B0806339B00F5
:10082000D31804331B68FA1D1278110003220A4002
:10083000D200FF2191400A00D2431A4011003B68C8
:100840009B01FF221A40FB1D1B7818000323034065
:10085000DB009A400948FB1D1B781C000F23234036
:10086000083B9B080A4306339B00C31804331A60F5
:10087000C046BD4603B090BD00E100E000ED00E0E1
:1008800080B500AF0F4B1A680E4B802149020A4316
:100890001A60C0460B4B1A6880239B021340F9D0A4
:1008A000084B5A68074B01210A435A60C046054B62
:1008B0005B680C221340042BF9D1C046C046BD46EC
:1008C00080BDC0460010024080B500AF324B5A696F
:1008D000314B8021C9020A435A61304B1A682F4BB1
:1008E00003218A431A602D4B1A682C4B01210A43BD
:1008F0001A602A4B5A68294B01218A435A60274BB8
:100900009A68264B01218A439A60244B9A68234BAC
:1009100003210A439A60214B1A68204BC0218A4365
:100920001A601E4B1A681D4B40210A431A601B4B6C
:100930005A681A4B08218A435A60184B9A68174B19
:1009400040218A439A60154B9A68144BC0210A4390
:100950009A60124B1A68114B11490A401A600F4BEA
:100960001A680E4B802149000A431A600B4B5A68E3
:100970000A4B10218A435A60084B9A68074B094971
:100980000A409A60054B9A68044BC02189000A43CB
:100990009A60C046BD4680BD001002400004004879
:1009A000FFFCFFFFFFFEFFFF80B500AF104BDA69D1
:1009B0000F4B02210A43DA610E4B07229A620D4B5C
:1009C0000D4ADA620B4BDA680A4B01210A43DA60FE
:1009D000084B1A68074B01210A431A601020FFF7E1
:1009E000C7FE01211020FFF7DDFEC046BD4680BDD9
:1009F0000010024000040040E703000080B584B00E
:100A000000AF7860154BBB60BB68FA2291001800FC
:100A1000FFF704FC03001A007B685343FB60FA688D
:100A200080235B049A4201DB0D4BFB60FB685A1E7E
:100A30000C4B5A600B4B00229A600A4B01221A6041
:100A4000C046084B1A6880235B021340F9D0054B5F
:100A500000221A60C046BD4604B080BD40420F006F
:100A6000FFFFFF0010E000E080B500AF084BDB693E
:100A70002022134008D0064B9B8C9BB2DAB2054B68
:100A80001A70054B01221A70C046BD4680BDC04693
:100A9000003801401C0000201D00002080B500AF80
:100AA000114B1B69012213401AD00F4B1A690E4BD0
:100AB00001218A431A610D4B1B8801339AB20B4BFB
:100AC0001A800A4B1A88FA239B009A4208D1074BD6
:100AD00000221A80064B5A69054B01214A405A618F
:100AE000C046BD4680BDC046000400401E00002038
:100AF0000004004880B500AFFFF7C2FE96239B01BB
:100B00001800FFF7FFFCFFF793FDFFF7DDFEFFF78F
:100B10004BFF62B6C046244B802212039A61224BDF
:100B200010229A61214B1B78002BFBD0204B180020
:100B3000FFF76CFD1F4B1B78012B23D11B4B1B7840
:100B40001800FFF7EFFD184B10229A61164B9A69B7
:100B5000154B08210A439A610120FFF74FFF124B02
:100B60009A69114B802149030A439A610E4B8022F6
:100B700012039A610F4B00221A700F4B1800FFF7F7
:100B800045FD08E00D4B1800FFF740FDFA23DB00A0
:100B90001800FFF733FF054B1B78232BCAD1034BFB
:100BA00000221A70BEE7C046000400481C00002066
:100BB000740C00081D000020AC0C0008B80C0008E4
:100BC0000D48854600E000BF0C480D490D4A002342
:100BD00002E0D458C4500433C4188C42F9D30A4AF2
:100BE0000A4C002301E013600432A242FBD300F060
:100BF00011F8FFF77FFFFEE7001000200000002043
:100C000000000020EC0C0008000000202000002064
:100C1000FEE7000070B500260C4C0D4D641BA410BF
:100C2000A64209D1002600F019F80A4C0A4D641BAF
:100C3000A410A64205D170BDB300EB589847013609
:100C4000EEE7B300EB5898470136F2E7E40C0008F2
:100C5000E40C0008E80C0008E40C0008F8B5C046F5
:100C6000F8BC08BC9E467047F8B5C046F8BC08BC46
:040C70009E467047E5
:100C7400446566696E61206F2063617261637465A7
:100C840072652071756520646576652073657220D0
:100C9400656E766961646F2070617261206F2037C0
:100CA4003448433539353A00456E766961646F21BD
:100CB40000000000416775617264616E646F2063B7
:100CC4006172616374657265206F75207465636C0D
:100CD40065202320706172612073616972210000B4
:040CE400E90000081B
:040CE800C10000083F
:0400000508000BC123
:00000001FF
