:020000040800F2
:10000000001000203102000881020008810200086F
:1000100000000000000000000000000000000000E0
:100020000000000000000000000000008102000845
:1000300000000000000000008102000881020008AA
:100040008102000881020008810200088102000884
:100050008102000881020008810200088102000874
:1000600000000000810200088102000881020008EF
:1000700081020008810200088102000800000000DF
:1000800081020008810200080000000081020008CF
:100090008102000881020008810200088102000834
:1000A0008102000881020008810200088102000824
:1000B000810200088102000800000000810200089F
:1000C00010B5064C2378002B07D1054B002B02D02E
:1000D000044800E000BF0123237010BD0000002091
:1000E00000000000CC020008044B10B5002B03D028
:1000F0000349044800E000BF10BDC04600000000F6
:1001000004000020CC02000880B500AF194B9A69AA
:10011000184B802109010A439A61174B174A9A62CA
:10012000154BFA229200DA62134B9A69124B702136
:100130008A439A61104B9A690F4B68210A439A616E
:100140000D4B1A6A0C4B01210A431A620A4BFA2220
:1001500052005A63084B5A6C074B802109020A432C
:100160005A64054B1A68044B01210A431A60C046C1
:10017000BD4680BD00100240002C01403F1F000022
:1001800080B500AF0F4B1A680E4B802149020A431D
:100190001A60C0460B4B1A6880239B021340F9D0AB
:1001A000084B5A68074B01210A435A60C046054B69
:1001B0005B680C221340042BF9D1C046C046BD46F3
:1001C00080BDC0460010024080B500AF114B5A6997
:1001D000104B802189020A435A619023DB051A687B
:1001E0009023DB050C490A401A609023DB051A684E
:1001F0009023DB05802189020A431A609023DB05E6
:100200005A6A9023DB0502210A435A62C046BD4662
:1002100080BDC04600100240FFFFFCFF80B500AF6C
:10022000FFF7AEFFFFF7D0FFFFF76EFFC046FDE719
:100230000D48854600E000BF0C480D490D4A0023DB
:1002400002E0D458C4500433C4188C42F9D30A4A8B
:100250000A4C002301E013600432A242FBD300F0F9
:1002600011F8FFF7DBFFFEE7001000200000002080
:1002700000000020EC020008000000201C0000200C
:10028000FEE7000070B500260C4C0D4D641BA41059
:10029000A64209D1002600F019F80A4C0A4D641B49
:1002A000A410A64205D170BDB300EB5898470136A3
:1002B000EEE7B300EB5898470136F2E7E402000896
:1002C000E4020008E8020008E4020008F8B5C046AD
:1002D000F8BC08BC9E467047F8B5C046F8BC08BCE0
:0402E0009E4670477F
:0402E400E900000825
:0402E800C100000849
:0400000508000231BC
:00000001FF
