:020000040800F2
:10000000001000201D0400086D0400086D040008A5
:1000100000000000000000000000000000000000E0
:100020000000000000000000000000006D04000857
:1000300000000000000000006D0400086D040008CE
:100040006D0400086D0400086D0400086D040008CC
:100050006D0400086D0400086D0400086D040008BC
:10006000000000006D0400086D0400086D04000825
:100070006D0400086D0400086D0400080000000015
:100080006D0400086D040008000000006D04000805
:100090006D0400086D0400086D0400086D0400087C
:1000A0006D0400086D0400086D0400086D0400086C
:1000B0006D0400086D040008000000006D040008D5
:1000C00010B5064C2378002B07D1054B002B02D02E
:1000D000044800E000BF0123237010BD0000002091
:1000E00000000000B8040008044B10B5002B03D03A
:1000F0000349044800E000BF10BDC04600000000F6
:1001000004000020B8040008002243088B4274D386
:1001100003098B425FD3030A8B4244D3030B8B4208
:1001200028D3030C8B420DD3FF22090212BA030C11
:100130008B4202D31212090265D0030B8B4219D3F2
:1001400000E0090AC30B8B4201D3CB03C01A524112
:10015000830B8B4201D38B03C01A5241430B8B425A
:1001600001D34B03C01A5241030B8B4201D30B0343
:10017000C01A5241C30A8B4201D3CB02C01A52416A
:10018000830A8B4201D38B02C01A5241430A8B422D
:1001900001D34B02C01A5241030A8B4201D30B0216
:1001A000C01A5241CDD2C3098B4201D3CB01C01A30
:1001B000524183098B4201D38B01C01A524143093A
:1001C0008B4201D34B01C01A524103098B4201D328
:1001D0000B01C01A5241C3088B4201D3CB00C01A95
:1001E000524183088B4201D38B00C01A524143080D
:1001F0008B4201D34B00C01A5241411A00D2014632
:10020000524110467047FFE701B5002000F006F8A4
:1002100002BDC0460029F7D076E770477047C04658
:1002200090B583B000AF78601E4B5A691D4B80219A
:1002300089020A435A611B4B9A691A4B8021C901F2
:100240000A439A619023DB051A689023DB05F021AD
:100250008A431A609023DB051A689023DB05A021EE
:100260000A431A609023DB051A6A9023DB050E49C6
:100270000A401A629023DB051A6A9023DB05882165
:1002800049010A431A62094C79680948FFF73CFFA3
:100290000300E360054B0D221A60C046BD4603B063
:1002A00090BDC04600100240FF00FFFF0038014033
:1002B00000127A0080B582B000AF0200FB1D1A70F8
:1002C000C046074BDB6980221340FAD0044AFB1D6D
:1002D0001B789BB21385C046BD4602B080BDC046A8
:1002E0000038014080B582B000AF0200FB1D1A70DB
:1002F000FB1D1B781800FFF7DDFF0D20FFF7DAFF6D
:100300000A20FFF7D7FFC046BD4602B080BD80B5CA
:1003100084B000AF78600023FB6009E0FB687A6876
:10032000D3181B781800FFF7C5FFFB680133FB608B
:10033000FB687A68D3181B78002BEFD1C046C04603
:10034000BD4604B080BD80B582B000AF78607B68E8
:100350001800FFF7DCFF0D20FFF7ACFF0A20FFF7C6
:10036000A9FFC046BD4602B080BD000080B500AF09
:10037000C046064BDB6920221340FAD0034B9B8C0E
:100380009BB2DBB21800BD4680BDC04600380140BC
:1003900080B500AF0F4B1A680E4B802149020A430B
:1003A0001A60C0460B4B1A6880239B021340F9D099
:1003B000084B5A68074B01210A435A60C046054B57
:1003C0005B680C221340042BF9D1C046C046BD46E1
:1003D00080BDC0460010024090B583B000AFFFF76B
:1003E000D7FF96239B011800FFF71AFFFC1DFFF7AC
:1003F000BDFF03002370FB1D1B78002BF6D0064BBE
:100400001800FFF7A0FFFB1D1B781800FFF76AFF1D
:10041000FB1D00221A70E9E7D00400080D4885464C
:1004200000E000BF0C480D490D4A002302E0D458FB
:10043000C4500433C4188C42F9D30A4A0A4C00232E
:1004400001E013600432A242FBD300F011F8FFF781
:10045000C3FFFEE700100020000000200000002085
:10046000E4040008000000201C000020FEE700005B
:1004700070B500260C4C0D4D641BA410A64209D18A
:10048000002600F019F80A4C0A4D641BA410A6427D
:1004900005D170BDB300EB5898470136EEE7B300C5
:1004A000EB5898470136F2E7DC040008DC0400084A
:1004B000E0040008DC040008F8B5C046F8BC08BC3D
:1004C0009E467047F8B5C046F8BC08BC9E467047CB
:0C04D000524543454249444F3A000000A9
:0404DC00E90000082B
:0404E000C10000084F
:040000050800041DCE
:00000001FF
