:020000040800F2
:100000000010002075020008C5020008C5020008A3
:1000100000000000000000000000000000000000E0
:10002000000000000000000000000000C502000801
:100030000000000000000000C5020008C502000822
:10004000C5020008C5020008C5020008C502000874
:10005000C5020008C5020008C5020008C502000864
:1000600000000000C5020008C5020008C502000823
:10007000C5020008C5020008C50200080000000013
:10008000C5020008C502000800000000C502000803
:10009000C5020008C5020008C5020008C502000824
:1000A000C5020008C5020008C5020008C502000814
:1000B000C5020008C502000800000000C5020008D3
:1000C00010B5064C2378002B07D1054B002B02D02E
:1000D000044800E000BF0123237010BD0000002091
:1000E0000000000010030008044B10B5002B03D0E3
:1000F0000349044800E000BF10BDC04600000000F6
:10010000040000201003000880B500AF1C4B9A6962
:100110001B4B802109010A439A611A4B07229A62FC
:10012000184B194ADA62174B9A69164B70218A43A9
:100130009A61144B9A69134B68210A439A61114BD7
:100140001A6A104B01210A431A620E4B1A6A0D4BB0
:1001500004210A431A620B4BFA2252005A63094BDC
:100160005A6C084B802109020A435A64054B1A68ED
:10017000044B01210A431A60C046BD4680BDC046FB
:1001800000100240002C0140E703000080B500AFE2
:100190000F4B1A680E4B802149020A431A60C04671
:1001A0000B4B1A6880239B021340F9D0084B5A6806
:1001B000074B01210A435A60C046054B5B680C227D
:1001C0001340042BF9D1C046C046BD4680BDC04691
:1001D0000010024080B500AF1E4B5A691D4B8021B4
:1001E00089020A435A619023DB051A689023DB05D4
:1001F00019490A401A609023DB051A689023DB0531
:10020000802109020A431A609023DB051A6A9023B1
:10021000DB05802189050A431A629023DB051A68F1
:100220009023DB050D490A401A609023DB051A680C
:100230009023DB05802189020A431A609023DB05A5
:100240005A6A9023DB0502210A435A62C046BD4622
:1002500080BDC04600100240FF3FFFFFFFFFFCFFD4
:1002600080B500AFFFF792FFFFF7B4FFFFF74CFF39
:10027000C046FDE70D48854600E000BF0C480D492B
:100280000D4A002302E0D458C4500433C4188C42F1
:10029000F9D30A4A0A4C002301E013600432A24257
:1002A000FBD300F011F8FFF7DBFFFEE700100020A2
:1002B00000000020000000203003000800000020A3
:1002C0001C000020FEE7000070B500260C4C0D4D10
:1002D000641BA410A64209D1002600F019F80A4CAC
:1002E0000A4D641BA410A64205D170BDB300EB58A3
:1002F00098470136EEE7B300EB5898470136F2E72E
:1003000028030008280300082C030008280300081D
:10031000F8B5C046F8BC08BC9E467047F8B5C04664
:08032000F8BC08BC9E467047C2
:04032800E9000008E0
:04032C00C100000804
:040000050800027578
:00000001FF
