:020000040800F2
:1000000000100020FD0100084D0200084D0200080C
:1000100000000000000000000000000000000000E0
:100020000000000000000000000000004D02000879
:1000300000000000000000004D0200084D02000812
:100040004D0200084D0200084D0200084D02000854
:100050004D0200084D0200084D0200084D02000844
:10006000000000004D0200084D0200084D0200088B
:100070004D0200084D0200084D020008000000007B
:100080004D0200084D020008000000004D0200086B
:100090004D0200084D0200084D0200084D02000804
:1000A0004D0200084D0200084D0200084D020008F4
:1000B0004D0200084D020008000000004D0200083B
:1000C00010B5064C2378002B07D1054B002B02D02E
:1000D000044800E000BF0123237010BD0000002091
:1000E0000000000098020008044B10B5002B03D05C
:1000F0000349044800E000BF10BDC04600000000F6
:10010000040000209802000880B500AF0F4B1A6869
:100110000E4B802149020A431A60C0460B4B1A68F5
:1001200080239B021340F9D0084B5A68074B0121EA
:100130000A435A60C046054B5B680C221340042BEF
:10014000F9D1C046C046BD4680BDC0460010024041
:1001500080B500AF194B5A69184B8021C9020A4378
:100160005A61174B1A68164B03218A431A60144BC5
:100170001A68134B01210A431A60114B5A68104B3D
:1001800001218A435A600E4B9A680D4B01218A4324
:100190009A600B4B9A680A4B03210A439A60084BFA
:1001A0001A68074B0C218A431A60054BDA68044B26
:1001B0000C218A43DA60C046BD4680BD0010024073
:1001C0000004004880B500AFFFF79EFFFFF7C0FFB7
:1001D000094B1B690222134006D0074B5A69064B94
:1001E00001210A435A61F3E7034B5A69024B01218B
:1001F0008A435A61ECE7C046000400480D48854632
:1002000000E000BF0C480D490D4A002302E0D4581D
:10021000C4500433C4188C42F9D30A4A0A4C002350
:1002200001E013600432A242FBD300F011F8FFF7A3
:10023000C9FFFEE7001000200000002000000020A1
:10024000B8020008000000201C000020FEE70000AB
:1002500070B500260C4C0D4D641BA410A64209D1AC
:10026000002600F019F80A4C0A4D641BA410A6429F
:1002700005D170BDB300EB5898470136EEE7B300E7
:10028000EB5898470136F2E7B0020008B0020008C8
:10029000B4020008B0020008F8B5C046F8BC08BCBB
:1002A0009E467047F8B5C046F8BC08BC9E467047ED
:0402B000E900000859
:0402B400C10000087D
:04000005080001FDF1
:00000001FF
