:020000040800F2
:1000000000100020E9010008390200083902000848
:1000100000000000000000000000000000000000E0
:10002000000000000000000000000000390200088D
:10003000000000000000000039020008390200083A
:1000400039020008390200083902000839020008A4
:100050003902000839020008390200083902000894
:1000600000000000390200083902000839020008C7
:1000700039020008390200083902000800000000B7
:1000800039020008390200080000000039020008A7
:100090003902000839020008390200083902000854
:1000A0003902000839020008390200083902000844
:1000B0003902000839020008000000003902000877
:1000C00010B5064C2378002B07D1054B002B02D02E
:1000D000044800E000BF0123237010BD0000002091
:1000E0000000000084020008044B10B5002B03D070
:1000F0000349044800E000BF10BDC04600000000F6
:10010000040000208402000880B500AF0F4B1A687D
:100110000E4B802149020A431A60C0460B4B1A68F5
:1001200080239B021340F9D0084B5A68074B0121EA
:100130000A435A60C046054B5B680C221340042BEF
:10014000F9D1C046C046BD4680BDC0460010024041
:1001500080B584B000AF78607B68FB60FA681300FC
:100160005B019B1A9B009B18DB00FB60094BFA6844
:100170005A60084B01221A60C046064B1A68802359
:100180005B021340F9D0034B00221A60C046BD4603
:1001900004B080BD10E000E080B500AFFFF7B4FF11
:1001A0000F4B5A690E4B8021C9020A435A610D4B0D
:1001B0001A680C4B03218A431A600A4B1A68094BD0
:1001C00001210A431A60074B5A69064B01214A4034
:1001D0005A61FA235B001800FFF7BAFFC046F2E746
:1001E00000100240000400480D48854600E000BFB2
:1001F0000C480D490D4A002302E0D458C450043382
:10020000C4188C42F9D30A4A0A4C002301E0136057
:100210000432A242FBD300F011F8FFF7BDFFFEE766
:10022000001000200000002000000020A4020008B0
:10023000000000201C000020FEE7000070B5002632
:100240000C4C0D4D641BA410A64209D1002600F0F1
:1002500019F80A4C0A4D641BA410A64205D170BDC2
:10026000B300EB5898470136EEE7B300EB589847D8
:100270000136F2E79C0200089C020008A002000878
:100280009C020008F8B5C046F8BC08BC9E46704702
:0C029000F8B5C046F8BC08BC9E4670479C
:04029C00E90000086D
:0402A000C100000891
:04000005080001E905
:00000001FF
