:020000040800F2
:10000000001000209D070008ED070008ED0700081C
:1000100000000000000000000000000000000000E0
:10002000000000000000000000000000ED070008D4
:100030000000000000000000ED070008ED070008C8
:10004000ED070008ED070008ED070008ED070008C0
:10005000ED070008ED070008ED070008ED070008B0
:1000600000000000ED070008ED070008ED0700089C
:10007000ED070008ED070008ED070008000000008C
:10008000ED070008ED07000800000000ED0700087C
:10009000ED070008ED070008ED070008ED07000870
:1000A000ED070008ED070008ED070008ED07000860
:1000B000ED070008ED07000800000000ED0700084C
:1000C00010B5064C2378002B07D1054B002B02D02E
:1000D000044800E000BF0123237010BD0000002091
:1000E0000000000038080008044B10B5002B03D0B6
:1000F0000349044800E000BF10BDC04600000000F6
:10010000040000203808000803460B437FD4002277
:1001100043088B4274D303098B425FD3030A8B429B
:1001200044D3030B8B4228D3030C8B420DD3FF2205
:10013000090212BA030C8B4202D31212090265D0D3
:10014000030B8B4219D300E0090AC30B8B4201D386
:10015000CB03C01A5241830B8B4201D38B03C01ACD
:100160005241430B8B4201D34B03C01A5241030B44
:100170008B4201D30B03C01A5241C30A8B4201D3F5
:10018000CB02C01A5241830A8B4201D38B02C01AA0
:100190005241430A8B4201D34B02C01A5241030A17
:1001A0008B4201D30B02C01A5241CDD2C3098B42FC
:1001B00001D3CB01C01A524183098B4201D38B0179
:1001C000C01A524143098B4201D34B01C01A52411C
:1001D00003098B4201D30B01C01A5241C3088B4261
:1001E00001D3CB00C01A524183088B4201D38B004C
:1001F000C01A524143088B4201D34B00C01A5241EE
:10020000411A00D201465241104670475DE0CA0FC4
:1002100000D04942031000D34042534000229C4684
:1002200003098B422DD3030A8B4212D3FC2289018E
:1002300012BA030A8B420CD3890192118B4208D364
:10024000890192118B4204D389013AD0921100E0C6
:100250008909C3098B4201D3CB01C01A52418309DA
:100260008B4201D38B01C01A524143098B4201D307
:100270004B01C01A524103098B4201D30B01C01A32
:100280005241C3088B4201D3CB00C01A52418308AC
:100290008B4201D38B00C01A5241D9D243088B4202
:1002A00001D34B00C01A5241411A00D201466346A5
:1002B00052415B10104601D34042002B00D5494209
:1002C000704763465B1000D3404201B5002000F048
:1002D00005F802BD0029F8D016E770477047C04600
:1002E00080B582B000AF0200FB1D1A703D4B5B6908
:1002F0008B2293431A00FB1D1B781B09DBB21900EC
:1003000001230B401A43FB1D1B785B09DBB25B002A
:1003100002210B401A43FB1D1B789B09DBB2DB015A
:10032000FF210B401A431100FB1D1B78DB09DBB2D8
:10033000DB0008221A402B4B0A435A61294B5A69A9
:10034000284B10218A435A61264B5A69254B20219C
:100350000A435A61012000F0BFF9224B5A69214B30
:1003600020218A435A61012000F0B6F91D4B5B69D8
:100370008B2293431A00FB1D1B7801210B401A436B
:10038000FB1D1B785B08DBB25B0002210B401A43AC
:10039000FB1D1B789B08DBB2DB01FF210B401A43DE
:1003A0001100FB1D1B78DB08DBB2DB0008221A40C2
:1003B0000C4B0A435A610B4B5A690A4B20210A43E2
:1003C0005A61012000F088F9064B5A69054B20213B
:1003D0008A435A61032000F07FF9C046BD4602B04F
:1003E00080BDC0460004004880B500AF282000F062
:1003F00073F90220FFF774FF2820FFF771FF012037
:10040000FFF76EFF0C20FFF76BFF0620FFF768FF7A
:10041000C046BD4680BD000080B582B000AF02007E
:10042000FB1D1A703D4B5B698B2293431A00FB1D29
:100430001B781B09DBB2190001230B401A43FB1D7B
:100440001B785B09DBB25B0002210B401A43FB1DEA
:100450001B789B09DBB2DB01FF210B401A43110023
:10046000FB1D1B78DB09DBB2DB0008221A402B4B9B
:100470000A435A61294B5A69284B10210A435A6191
:10048000264B5A69254B20210A435A61012000F06E
:1004900023F9224B5A69214B20218A435A610120BA
:1004A00000F01AF91D4B5B698B2293431A00FB1D68
:1004B0001B7801210B401A43FB1D1B785B08DBB244
:1004C0005B0002210B401A43FB1D1B789B08DBB22B
:1004D000DB01FF210B401A431100FB1D1B78DB08D9
:1004E000DBB2DB0008221A400C4B0A435A610B4B6B
:1004F0005A690A4B20210A435A61012000F0ECF8A6
:10050000064B5A69054B20218A435A61032000F0AB
:10051000E3F8C046BD4602B080BDC04600040048B6
:1005200080B582B000AF786007E07B681B78180068
:10053000FFF772FF7B6801337B607B681B78002BC1
:10054000F3D1C046C046BD4602B080BD80B584B080
:1005500000AF3A60FB1D021C1A70BB1D0A1C1A700A
:100560000F23FB1800221A70FB1D1B78032B2CD0C5
:1005700037DC022B1DD034DC002B02D0012B0CD039
:100580002FE00F217B18BA1D1278803A1A707B1861
:100590001B781800FFF7A4FE23E00F217B18BA1D7B
:1005A0001278403A1A707B181B781800FFF798FEF3
:1005B00017E00F217B18BA1D12786C3A1A707B185D
:1005C0001B781800FFF78CFE0BE00F217B18BA1D7B
:1005D00012782C3A1A707B181B781800FFF780FEEF
:1005E000C0463B681800FFF79BFFC046BD4604B0FD
:1005F00080BD80B500AF0120FFF772FE032000F040
:100600006BF8C046BD4680BD80B500AF0F4B1A6881
:100610000E4B802149020A431A60C0460B4B1A68F0
:1006200080239B021340F9D0084B5A68074B0121E5
:100630000A435A60C046054B5B680C221340042BEA
:10064000F9D1C046C046BD4680BDC046001002403C
:1006500080B500AF1A4B5A69194B8021C9020A4371
:100660005A61184B1A68174B17490A401A60154B04
:100670001A68144B15490A431A60124B1A68114B39
:1006800013490A401A600F4B1A680E4BA021C9008B
:100690000A431A600B4B5A680A4BBB218A435A60C3
:1006A000084B9A68074B0B490A409A60054BDA6879
:1006B000044B08490A40DA60C046BD4680BDC046CA
:1006C0000010024000040048303FFFFF454000009A
:1006D000FFF0FFFF3030FFFF80B584B000AF7860DF
:1006E000154BBB60BB68FA2291001800FFF70CFDA8
:1006F00003001A007B685343FB60FA6880235B04A5
:100700009A4201DB0D4BFB60FB685A1E0C4B5A6092
:100710000B4B00229A600A4B01221A60C046084B1C
:100720001A6880235B021340F9D0054B00221A603F
:10073000C046BD4604B080BD40420F00FFFFFF0031
:1007400010E000E080B500AFFFF75EFFFFF780FF2D
:10075000FFF74AFEFFF74DFF0D4B1A000421012061
:10076000FFF7F4FEFA239B001800FFF7B5FFFFF731
:1007700040FF084B1A0000210020FFF7E7FE064B60
:100780001A0000210120FFF7E1FEC046F1E7C04654
:100790005008000860080008680800080D488546F1
:1007A00000E000BF0C480D490D4A002302E0D45878
:1007B000C4500433C4188C42F9D30A4A0A4C0023AB
:1007C00001E013600432A242FBD300F011F8FFF7FE
:1007D000B9FFFEE70010002000000020000000200C
:1007E00080080008000000201C000020FEE7000038
:1007F00070B500260C4C0D4D641BA410A64209D107
:10080000002600F019F80A4C0A4D641BA410A642F9
:1008100005D170BDB300EB5898470136EEE7B30041
:10082000EB5898470136F2E7780800087808000886
:100830007C08000878080008F8B5C046F8BC08BC79
:100840009E467047F8B5C046F8BC08BC9E46704747
:10085000494E494349414E444F2E2E2E0000000080
:10086000544553544500000053544D333246303301
:08087000304B36543600000045
:04087800E90000088B
:04087C00C1000008AF
:040000050800079D4B
:00000001FF
