:020000040800F2
:100000000010002085020008D5020008D502000873
:1000100000000000000000000000000000000000E0
:10002000000000000000000000000000D5020008F1
:100030000000000000000000D5020008D502000802
:10004000D5020008D5020008D5020008D502000834
:10005000D5020008D5020008D5020008D502000824
:1000600000000000D5020008D5020008D5020008F3
:10007000D50200081D020008D5020008000000009B
:10008000D5020008D502000800000000D5020008D3
:10009000D5020008D5020008D5020008D5020008E4
:1000A000D5020008D5020008D5020008D5020008D4
:1000B000D5020008D502000800000000D5020008A3
:1000C00010B5064C2378002B07D1054B002B02D02E
:1000D000044800E000BF0123237010BD0000002091
:1000E0000000000020030008044B10B5002B03D0D3
:1000F0000349044800E000BF10BDC04600000000F6
:10010000040000202003000880B582B000AF020088
:10011000FB1D1A70FB1D1B787F2B09D8FB1D1B785C
:100120001A001F231A40044B012191400A001A6053
:10013000C046BD4602B080BD00E100E080B500AF22
:100140000F4B1A680E4B802149020A431A60C046C1
:100150000B4B1A6880239B021340F9D0084B5A6856
:10016000074B01210A435A60C046054B5B680C22CD
:100170001340042BF9D1C046C046BD4680BDC046E1
:100180000010024080B500AF0D4B5A690C4B802126
:10019000C9020A435A610B4B1A680A4B03218A436E
:1001A0001A60084B1A68074B01210A431A60054B75
:1001B0005A68044B01218A435A60C046BD4680BD3F
:1001C000001002400004004880B500AF0F4B9A6950
:1001D0000E4B802109010A439A610D4B0D4A9A6228
:1001E0000B4B0D4ADA620A4BDA68094B01210A43CC
:1001F000DA60074B1A68064B01210A431A600D208A
:10020000FFF782FFC046BD4680BDC04600100240D9
:10021000002C01403F1F0000E703000080B500AF45
:10022000094B1B69012213400BD0074B1A69064B7F
:1002300001218A431A61054B1B780133DAB2034B63
:100240001A70C046BD4680BD002C01401C00002035
:1002500080B500AFFFF772FFFFF794FFFFF7B4FF21
:10026000064B1B78012BFBD1054B5A69044B01212E
:100270004A405A61014B00221A70F1E71C0000202D
:10028000000400480D48854600E000BF0C480D49B9
:100290000D4A002302E0D458C4500433C4188C42E1
:1002A000F9D30A4A0A4C002301E013600432A24247
:1002B000FBD300F011F8FFF7CBFFFEE700100020A2
:1002C0000000002000000020400300080000002083
:1002D00020000020FEE7000070B500260C4C0D4DFC
:1002E000641BA410A64209D1002600F019F80A4C9C
:1002F0000A4D641BA410A64205D170BDB300EB5893
:1003000098470136EEE7B300EB5898470136F2E71D
:1003100038030008380300083C03000838030008CD
:10032000F8B5C046F8BC08BC9E467047F8B5C04654
:08033000F8BC08BC9E467047B2
:04033800E9000008D0
:04033C00C1000008F4
:040000050800028568
:00000001FF
