:020000040800F2
:1000000000100020DD0400082D0500082D05000863
:1000100000000000000000000000000000000000E0
:100020000000000000000000000000002D05000896
:1000300000000000000000002D0500082D0500084C
:100040002D0500082D0500082D0500082D050008C8
:100050002D0500082D0500082D0500082D050008B8
:10006000000000002D0500082D0500082D050008E2
:100070002D0500082D0500082D05000800000000D2
:100080002D0500082D050008000000002D050008C2
:100090002D0500082D0500082D0500082D05000878
:1000A0002D0500082D0500082D0500082D05000868
:1000B0002D0500082D050008000000002D05000892
:1000C00010B5064C2378002B07D1054B002B02D02E
:1000D000044800E000BF0123237010BD0000002091
:1000E0000000000078050008044B10B5002B03D079
:1000F0000349044800E000BF10BDC04600000000F6
:10010000040000207805000880B500AF274B1A696D
:10011000264B920092081A61244B1A69234B8021C6
:10012000C9050A431A61224B5A69214B8021890271
:100130000A435A619023DB051A689023DB050321EB
:100140000A431A601A4B9A69194B802189000A43A5
:100150009A61164B5A69154B07218A435A61134B12
:100160005A69124B03210A435A61104B9B680122C2
:1001700013400BD10D4B9A680C4B802109060A43A2
:100180009A60C046094B9B68002BFBDB074B9A68C3
:10019000064B01210A439A60C046044B1B680122AA
:1001A0001340FAD0C046C046BD4680BD0024014081
:1001B0000010024080B500AF0C4B01229A620B4B3D
:1001C0001A680A4B04210A431A60084B9A68074BC5
:1001D00004210A439A60C046044B1B680422134062
:1001E000FAD0024B1B6C1800BD4680BD00240140B4
:1001F00080B500AF0F4B1A680E4B802149020A43AD
:100200001A60C0460B4B1A6880239B021340F9D03A
:10021000084B5A68074B01210A435A60C046054BF8
:100220005B680C221340042BF9D1C046C046BD4682
:1002300080BDC0460010024080B500AF414B5A69F6
:10024000404B8021C9020A435A613F4B1A683E4B1A
:1002500003218A431A603C4B1A683B4B01210A4335
:100260001A60394B5A68384B01218A435A60364B21
:100270009A68354B01218A439A60334B9A68324B16
:1002800003210A439A60304B1A682F4B0C218A4392
:100290001A602D4B1A682C4B04210A431A602A4B12
:1002A0005A68294B02218A435A60274B9A68264B89
:1002B00004218A439A60244B9A68234B0C210A43F9
:1002C0009A60214B1A68204BC0218A431A601E4B4A
:1002D0001A681D4B40210A431A601B4B5A681A4B7F
:1002E00008218A435A60184B9A68174B40218A4369
:1002F0009A60154B9A68144BC0210A439A60124BBE
:100300001A68114B11490A401A600F4B1A680E4BBC
:10031000802149000A431A600B4B5A680A4B10218E
:100320008A435A60084B9A68074B09490A409A6009
:10033000054B9A68044BC02189000A439A60C04665
:10034000BD4680BD0010024000040048FFFCFFFFD6
:10035000FFFEFFFF80B500AFFFF74AFFFFF76CFF1E
:10036000FFF7D2FEFFF726FF0200594B1A60584BE9
:100370001B68642B18D8574B5A69564B01218A4386
:100380005A61544B5A69534B02218A435A61514B6B
:100390005A69504B08218A435A614E4B5A694D4B5A
:1003A00010218A435A61DDE7494B1A68FA239B0002
:1003B0009A4218D8474B5A69464B01210A435A6161
:1003C000444B5A69434B02218A435A61414B5A6953
:1003D000404B08218A435A613E4B5A693D4B1021DC
:1003E0008A435A61BEE73A4B1A68FA23DB009A4205
:1003F00018D8384B5A69374B01210A435A61354B9B
:100400005A69344B02210A435A61324B5A69314BC3
:1004100008218A435A612F4B5A692E4B10218A4377
:100420005A619FE72A4B1B682B4A934218D8294BE5
:100430005A69284B01210A435A61264B5A69254BB8
:1004400002210A435A61234B5A69224B08210A436D
:100450005A61204B5A691F4B10218A435A6181E728
:100460001B4B1A68FA231B019A4218D8194B5A6978
:10047000184B01210A435A61164B5A69154B022148
:100480000A435A61134B5A69124B08210A435A61B5
:10049000104B5A690F4B10210A435A6162E70D4B0A
:1004A0005A690C4B01218A435A610A4B5A69094B1C
:1004B00002218A435A61074B5A69064B08218A4335
:1004C0005A61044B5A69034B10218A435A6149E728
:1004D0001C00002000040048B80B00000D488546B1
:1004E00000E000BF0C480D490D4A002302E0D4583B
:1004F000C4500433C4188C42F9D30A4A0A4C00236E
:1005000001E013600432A242FBD300F011F8FFF7C0
:1005100021FFFEE700100020000000200000002066
:10052000980500080000002020000020FEE70000E1
:1005300070B500260C4C0D4D641BA410A64209D1C9
:10054000002600F019F80A4C0A4D641BA410A642BC
:1005500005D170BDB300EB5898470136EEE7B30004
:10056000EB5898470136F2E790050008900500081F
:100570009405000890050008F8B5C046F8BC08BC12
:100580009E467047F8B5C046F8BC08BC9E4670470A
:04059000E900000876
:04059400C10000089A
:04000005080004DD0E
:00000001FF
