:020000040800F2
:1000000000100020D90B0008290C0008290C00085A
:1000100000000000000000000000000000000000E0
:10002000000000000000000000000000290C000893
:100030000000000000000000290C0008290C000846
:10004000290C0008290C0008290C0008290C0008BC
:10005000290C00088D0A0008290C0008290C00084A
:1000600000000000290C0008290C0008290C0008D9
:10007000290C0008290C0008290C000800000000C9
:10008000390B0008290C000800000000290C0008AA
:10009000290C0008290C0008290C0008290C00086C
:1000A000290C0008290C0008290C0008050B000881
:1000B000290C0008290C000800000000290C000889
:1000C00010B5064C2378002B07D1054B002B02D02E
:1000D000044800E000BF0123237010BD0000002091
:1000E00000000000740C0008044B10B5002B03D076
:1000F0000349044800E000BF10BDC04600000000F6
:1001000004000020740C0008002243088B4274D3C2
:1001100003098B425FD3030A8B4244D3030B8B4208
:1001200028D3030C8B420DD3FF22090212BA030C11
:100130008B4202D31212090265D0030B8B4219D3F2
:1001400000E0090AC30B8B4201D3CB03C01A524112
:10015000830B8B4201D38B03C01A5241430B8B425A
:1001600001D34B03C01A5241030B8B4201D30B0343
:10017000C01A5241C30A8B4201D3CB02C01A52416A
:10018000830A8B4201D38B02C01A5241430A8B422D
:1001900001D34B02C01A5241030A8B4201D30B0216
:1001A000C01A5241CDD2C3098B4201D3CB01C01A30
:1001B000524183098B4201D38B01C01A524143093A
:1001C0008B4201D34B01C01A524103098B4201D328
:1001D0000B01C01A5241C3088B4201D3CB00C01A95
:1001E000524183088B4201D38B00C01A524143080D
:1001F0008B4201D34B00C01A5241411A00D2014632
:10020000524110467047FFE701B5002000F0F0F8BA
:1002100002BDC0460029F7D076E7704703460B437E
:100220007FD4002243088B4274D303098B425FD3EF
:10023000030A8B4244D3030B8B4228D3030C8B421B
:100240000DD3FF22090212BA030C8B4202D3121201
:10025000090265D0030B8B4219D300E0090AC30BD6
:100260008B4201D3CB03C01A5241830B8B4201D383
:100270008B03C01A5241430B8B4201D34B03C01A6C
:100280005241030B8B4201D30B03C01A5241C30AE4
:100290008B4201D3CB02C01A5241830A8B4201D355
:1002A0008B02C01A5241430A8B4201D34B02C01A3F
:1002B0005241030A8B4201D30B02C01A5241CDD2E4
:1002C000C3098B4201D3CB01C01A524183098B422F
:1002D00001D38B01C01A524143098B4201D34B0118
:1002E000C01A524103098B4201D30B01C01A52417B
:1002F000C3088B4201D3CB00C01A524183088B4202
:1003000001D38B00C01A524143088B4201D34B00EA
:10031000C01A5241411A00D201465241104670475C
:100320005DE0CA0F00D04942031000D34042534061
:1003300000229C4603098B422DD3030A8B4212D321
:10034000FC22890112BA030A8B420CD38901921153
:100350008B4208D3890192118B4204D389013AD090
:10036000921100E08909C3098B4201D3CB01C01A65
:10037000524183098B4201D38B01C01A5241430978
:100380008B4201D34B01C01A524103098B4201D366
:100390000B01C01A5241C3088B4201D3CB00C01AD3
:1003A000524183088B4201D38B00C01A5241D9D2EB
:1003B00043088B4201D34B00C01A5241411A00D26C
:1003C0000146634652415B10104601D34042002B68
:1003D00000D54942704763465B1000D3404201B5E7
:1003E000002000F005F802BD0029F8D016E770479C
:1003F0007047C04680B582B000AF0200FB1D1A7086
:10040000FB1D1B787F2B09D8FB1D1B781A001F23AF
:100410001A40044B012191400A001A60C046BD46B3
:1004200002B080BD00E100E090B583B000AF0200F3
:100430003960FB1D1A70FB1D1B787F2B28D82F4AB3
:10044000FB1D1B785BB29B08C0339B009B58FA1DB9
:100450001278110003220A40D200FF2191400A00C5
:10046000D2431A4011003B689B01FF221A40FB1D3A
:100470001B78180003230340DB009A401F48FB1D34
:100480001B785BB29B080A43C0339B001A5031E0D3
:100490001B4AFB1D1B7819000F230B40083B9B08D0
:1004A00006339B00D31804331B68FA1D1278110021
:1004B00003220A40D200FF2191400A00D2431A4091
:1004C00011003B689B01FF221A40FB1D1B7818009E
:1004D00003230340DB009A400948FB1D1B781C00E6
:1004E0000F232340083B9B080A4306339B00C31895
:1004F00004331A60C046BD4603B090BD00E100E081
:1005000000ED00E090B583B000AF7860214B5A69F0
:10051000204B802189020A435A611E4B9A691D4B68
:100520008021C9010A439A619023DB051A68902350
:10053000DB05F0218A431A609023DB051A689023BB
:10054000DB05A0210A431A609023DB051A6A902379
:10055000DB0511490A401A629023DB051A6A9023D1
:10056000DB05882149010A431A620C4C79680C4862
:10057000FFF7CAFD0300E3601B20FFF73BFF0021EC
:100580001B20FFF751FF054B2D221A60C046BD46C8
:1005900003B090BD00100240FF00FFFF0038014093
:1005A00000127A0080B582B000AF0200FB1D1A7005
:1005B000C046074BDB6980221340FAD0044AFB1D7A
:1005C0001B789BB21385C046BD4602B080BDC046B5
:1005D0000038014080B582B000AF0200FB1D1A70E8
:1005E000FB1D1B781800FFF7DDFF0D20FFF7DAFF7A
:1005F0000A20FFF7D7FFC046BD4602B080BD00000D
:1006000080B500AF344B5A69334B802189020A43CD
:100610005A61314B9A69304B802149010A439A61F2
:100620009023DB051A689023DB052C490A401A60E9
:100630009023DB051A689023DB05A82109020A43F1
:100640001A609023DB051A6A9023DB051203120B54
:100650001A62234B1A68224B40218A431A60204BAE
:1006600000221A601E4B1A681D4B04210A431A60AF
:100670001B4B1A681A4B802189000A431A60184BD9
:100680001A68174B802149000A431A60144B1A68F4
:10069000134B38210A431A60114B00225A60104B49
:1006A0005A680F4BE021C9000A435A600C4B5A6844
:1006B0000B4B802149010A435A60094B5A68084B89
:1006C00004210A435A60064B1A68054B40210A432D
:1006D0001A60C046BD4680BD00100240FF03FFFF08
:1006E0000030014080B500AFC0460A4B9B68022233
:1006F0001340FAD0084BFF221A70C046054B9B6886
:1007000001221340FAD0034BDB68DBB21800BD4670
:1007100080BDC046003001400C30014080B582B041
:1007200000AF0200FB1D1A70FB1D1B787F2B09D840
:10073000FB1D1B781A001F231A40044B0121914016
:100740000A001A60C046BD4602B080BD00E100E06C
:1007500090B583B000AF02003960FB1D1A70FB1D1D
:100760001B787F2B28D82F4AFB1D1B785BB29B0878
:10077000C0339B009B58FA1D1278110003220A40D7
:10078000D200FF2191400A00D2431A4011003B6879
:100790009B01FF221A40FB1D1B7818000323034016
:1007A000DB009A401F48FB1D1B785BB29B080A4385
:1007B000C0339B001A5031E01B4AFB1D1B78190007
:1007C0000F230B40083B9B0806339B00D3180433D0
:1007D0001B68FA1D1278110003220A40D200FF2183
:1007E00091400A00D2431A4011003B689B01FF224E
:1007F0001A40FB1D1B78180003230340DB009A40BE
:100800000948FB1D1B781C000F232340083B9B0855
:100810000A4306339B00C31804331A60C046BD4622
:1008200003B090BD00E100E000ED00E080B500AF56
:100830000F4B1A680E4B802149020A431A60C046CA
:100840000B4B1A6880239B021340F9D0084B5A685F
:10085000074B01210A435A60C046054B5B680C22D6
:100860001340042BF9D1C046C046BD4680BDC046EA
:100870000010024080B500AF334B5A69324B8021E3
:10088000C9020A435A61314B1A68304B03218A432B
:100890001A602E4B1A682D4B01210A431A602B4B0C
:1008A0005A682A4B01218A435A60284B9A68274B81
:1008B00001218A439A60254B9A68244B03210A43FD
:1008C0009A60224B1A68214B21490A401A601F4B3B
:1008D0001A681E4B8021C9000A431A601B4B5A68D4
:1008E0001A4B20218A435A60184B9A68174B1949B2
:1008F0000A409A60154B9A68144BC02109010A43BB
:100900009A60124B1A68114B13490A401A600F4B38
:100910001A680E4B802149010A431A600B4B5A6832
:100920000A4B40218A435A60084B9A68074B0B498F
:100930000A409A60054B9A68044BC02189010A431A
:100940009A60C046BD4680BD0010024000040048C9
:10095000FFF3FFFFFFFBFFFFFFCFFFFFFFEFFFFFF7
:1009600080B500AF104BDA690F4B02210A43DA6100
:100970000E4B07229A620D4B0D4ADA620B4BDA6876
:100980000A4B01210A43DA60084B1A68074B012120
:100990000A431A601020FFF7C1FE02211020FFF762
:1009A000D7FEC046BD4680BD001002400004004096
:1009B000E703000080B500AF164B5A69154B802144
:1009C00089020A435A619023DB051A689023DB05EC
:1009D00003218A431A60104B9A680F4B0F218A43F8
:1009E0009A600E4B1A680D4B01210A431A600B4B9B
:1009F0009A680A4B01210A439A60084BDA68074B50
:100A000001218A43DA600520FFF788FEC046BD4613
:100A100080BDC046001002400000014000040140BB
:100A200080B584B000AF7860154BBB60BB68FA221C
:100A300091001800FFF7F2FB03001A007B68534394
:100A4000FB60FA6880235B049A4201DB0D4BFB607C
:100A5000FB685A1E0C4B5A600B4B00229A600A4BE3
:100A600001221A60C046084B1A6880235B021340BB
:100A7000F9D0054B00221A60C046BD4604B080BDC7
:100A800040420F00FFFFFF0010E000E080B500AF24
:100A9000194B5B69012213402AD06420FFF7C0FF85
:100AA000154B5A69144B01210A435A61134B80229A
:100AB00092039A610120FFF7B3FF104B9A690F4B25
:100AC00020210A439A610D4B8022D2039A61FFF7DD
:100AD00009FE03001A000A4B1A70084B9A69074B6B
:100AE00040210A439A61064B1B781800FFF772FDFC
:100AF000C046BD4680BDC046000401400004004819
:100B00001C00002080B500AF084BDB692022134099
:100B100008D0064B9B8C9BB2DAB2054B1A70054B82
:100B200001221A70C046BD4680BDC0460038014053
:100B30001C0000201D00002080B500AF114B1B6978
:100B4000012213401AD00F4B1A690E4B01218A4320
:100B50001A610D4B1B8801339AB20B4B1A800A4B5A
:100B60001A88FA239B009A4208D1074B00221A8068
:100B7000064B5A69054B01214A405A61C046BD46A1
:100B800080BDC046000400401E0000200004004854
:100B900080B500AFFFF74AFE96239B011800FFF7D0
:100BA000B1FCFFF72DFDFFF765FEFFF7D9FEFFF75C
:100BB00001FF62B6C046074B9A69064B20210A43E3
:100BC0009A61044B9A69034B40210A439A61C046DB
:100BD000FDE7C046000400480D48854600E000BF20
:100BE0000C480D490D4A002302E0D458C450043388
:100BF000C4188C42F9D30A4A0A4C002301E013605E
:100C00000432A242FBD300F011F8FFF7C1FFFEE768
:100C1000001000200000002000000020940C0008BC
:100C20000000002020000020FEE7000070B5002634
:100C30000C4C0D4D641BA410A64209D1002600F0F7
:100C400019F80A4C0A4D641BA410A64205D170BDC8
:100C5000B300EB5898470136EEE7B300EB589847DE
:100C60000136F2E78C0C00088C0C0008900C000890
:100C70008C0C0008F8B5C046F8BC08BC9E4670470E
:0C0C8000F8B5C046F8BC08BC9E467047A2
:040C8C00E900000873
:040C9000C100000897
:0400000508000BD90B
:00000001FF
