:020000040800F2
:100000000010002089060008D9060008D90600085B
:1000100000000000000000000000000000000000E0
:10002000000000000000000000000000D9060008E9
:100030000000000000000000D9060008D9060008F2
:10004000D9060008D9060008D9060008D906000814
:10005000D9060008D9060008D9060008D906000804
:1000600000000000D9060008D9060008D9060008DB
:10007000D9060008D9060008D906000800000000CB
:10008000D9060008D906000800000000D9060008BB
:10009000D9060008D9060008D9060008D9060008C4
:1000A000D9060008D9060008D9060008D9060008B4
:1000B000D9060008D906000800000000D90600088B
:1000C00010B5064C2378002B07D1054B002B02D02E
:1000D000044800E000BF0123237010BD0000002091
:1000E0000000000024070008044B10B5002B03D0CB
:1000F0000349044800E000BF10BDC04600000000F6
:100100000400002024070008002243088B4274D317
:1001100003098B425FD3030A8B4244D3030B8B4208
:1001200028D3030C8B420DD3FF22090212BA030C11
:100130008B4202D31212090265D0030B8B4219D3F2
:1001400000E0090AC30B8B4201D3CB03C01A524112
:10015000830B8B4201D38B03C01A5241430B8B425A
:1001600001D34B03C01A5241030B8B4201D30B0343
:10017000C01A5241C30A8B4201D3CB02C01A52416A
:10018000830A8B4201D38B02C01A5241430A8B422D
:1001900001D34B02C01A5241030A8B4201D30B0216
:1001A000C01A5241CDD2C3098B4201D3CB01C01A30
:1001B000524183098B4201D38B01C01A524143093A
:1001C0008B4201D34B01C01A524103098B4201D328
:1001D0000B01C01A5241C3088B4201D3CB00C01A95
:1001E000524183088B4201D38B00C01A524143080D
:1001F0008B4201D34B00C01A5241411A00D2014632
:10020000524110467047FFE701B5002000F0F0F8BA
:1002100002BDC0460029F7D076E7704703460B437E
:100220007FD4002243088B4274D303098B425FD3EF
:10023000030A8B4244D3030B8B4228D3030C8B421B
:100240000DD3FF22090212BA030C8B4202D3121201
:10025000090265D0030B8B4219D300E0090AC30BD6
:100260008B4201D3CB03C01A5241830B8B4201D383
:100270008B03C01A5241430B8B4201D34B03C01A6C
:100280005241030B8B4201D30B03C01A5241C30AE4
:100290008B4201D3CB02C01A5241830A8B4201D355
:1002A0008B02C01A5241430A8B4201D34B02C01A3F
:1002B0005241030A8B4201D30B02C01A5241CDD2E4
:1002C000C3098B4201D3CB01C01A524183098B422F
:1002D00001D38B01C01A524143098B4201D34B0118
:1002E000C01A524103098B4201D30B01C01A52417B
:1002F000C3088B4201D3CB00C01A524183088B4202
:1003000001D38B00C01A524143088B4201D34B00EA
:10031000C01A5241411A00D201465241104670475C
:100320005DE0CA0F00D04942031000D34042534061
:1003300000229C4603098B422DD3030A8B4212D321
:10034000FC22890112BA030A8B420CD38901921153
:100350008B4208D3890192118B4204D389013AD090
:10036000921100E08909C3098B4201D3CB01C01A65
:10037000524183098B4201D38B01C01A5241430978
:100380008B4201D34B01C01A524103098B4201D366
:100390000B01C01A5241C3088B4201D3CB00C01AD3
:1003A000524183088B4201D38B00C01A5241D9D2EB
:1003B00043088B4201D34B00C01A5241411A00D26C
:1003C0000146634652415B10104601D34042002B68
:1003D00000D54942704763465B1000D3404201B5E7
:1003E000002000F005F802BD0029F8D016E770479C
:1003F0007047C04690B583B000AF78601E4B5A6915
:100400001D4B802189020A435A611B4B9A691A4B82
:100410008021C9010A439A619023DB051A68902361
:10042000DB05F0218A431A609023DB051A689023CC
:10043000DB05A0210A431A609023DB051A6A90238A
:10044000DB050E490A401A629023DB051A6A9023E5
:10045000DB05882149010A431A62094C7968094879
:10046000FFF752FE0300E360054B0D221A60C04601
:10047000BD4603B090BDC04600100240FF00FFFF24
:100480000038014000127A0080B582B000AF02004F
:10049000FB1D1A70C046074BDB6980221340FAD05F
:1004A000044AFB1D1B789BB21385C046BD4602B0B3
:1004B00080BDC0460038014080B584B000AF786090
:1004C0000023FB6009E0FB687A68D3181B781800EA
:1004D000FFF7DAFFFB680133FB60FB687A68D3182B
:1004E0001B78002BEFD1C046C046BD4604B080BD8E
:1004F00080B582B000AF78607B681800FFF7DCFF42
:100500000D20FFF7C1FF0A20FFF7BEFFC046BD4622
:1005100002B080BD80B500AF0F4B1A680E4B802132
:1005200049020A431A60C0460B4B1A6880239B029B
:100530001340F9D0084B5A68074B01210A435A600F
:10054000C046054B5B680C221340042BF9D1C04612
:10055000C046BD4680BDC0460010024080B500AF19
:10056000134B5A69124B8021C9020A435A61114B3D
:100570001A68104B03218A431A600E4B1A680D4B00
:1005800001210A431A600B4B5A680A4B01218A4326
:100590005A60084B9A68074B01218A439A60054BC1
:1005A0009A68044B03210A439A60C046BD4680BD49
:1005B000001002400004004880B584B000AF7860AD
:1005C000154BBB60BB68FA2291001800FFF726FEAE
:1005D00003001A007B685343FB60FA6880235B04C6
:1005E0009A4201DB0D4BFB60FB685A1E0C4B5A60B4
:1005F0000B4B00229A600A4B01221A60C046084B3E
:100600001A6880235B021340F9D0054B00221A6060
:10061000C046BD4604B080BD40420F00FFFFFF0052
:1006200010E000E080B500AFFFF774FFFFF796FF22
:1006300096239B011800FFF7DDFE104B5A690F4B04
:1006400001210A435A610E4B1800FFF751FFFA23AC
:100650005B001800FFF7B0FF084B5A69074B0121F8
:100660008A435A61074B1800FFF742FFFA235B00E9
:100670001800FFF7A1FFC046DFE7C04600040048AE
:100680003C070008540700080D48854600E000BFFD
:100690000C480D490D4A002302E0D458C4500433DD
:1006A000C4188C42F9D30A4A0A4C002301E01360B3
:1006B0000432A242FBD300F011F8FFF7B3FFFEE7CC
:1006C0000010002000000020000000207407000837
:1006D000000000201C000020FEE7000070B500268E
:1006E0000C4C0D4D641BA410A64209D1002600F04D
:1006F00019F80A4C0A4D641BA410A64205D170BD1E
:10070000B300EB5898470136EEE7B300EB58984733
:100710000136F2E76C0700086C0700087007000854
:100720006C070008F8B5C046F8BC08BC9E46704788
:0C073000F8B5C046F8BC08BC9E467047F7
:10073C005445535445202D20424F4152444C45447E
:10074C00203D2031000000005445535445202D20FD
:10075C00424F4152444C4544203D203000000000A3
:04076C00E900000898
:04077000C1000008BC
:040000050800068960
:00000001FF
